:100000000C9434000C9446000C9446000C9446006A
:100010000C9446000C9446000C9446000C94460048
:100020000C9446000C9446000C9446000C94460038
:100030000C9446000C9446000C9446000C94460028
:100040000C9446000C9446000C9446000C94460018
:100050000C9446000C9446000C9446000C94460008
:100060000C9446000C94460011241FBECFEFD8E03C
:10007000DEBFCDBF21E0A0E0B1E001C01D92AB30FA
:10008000B207E1F70E94AE000C94A4020C940000A9
:1000900061E080E00E94A70161E081E00E94A70189
:1000A00061E082E00E94A70161E083E00E94A70175
:1000B000089561E080E00E940D0260E081E00E940E
:1000C0000D0261E082E00E940D0260E083E00E9488
:1000D0000D02089561E080E00E940D0260E081E081
:1000E0000E940D0260E082E00E940D0260E083E069
:1000F0000E940D02089560E080E00E940D0260E021
:1001000081E00E940D0261E082E00E940D0260E049
:1001100083E00E940D02089560E080E00E940D02DD
:1001200061E081E00E940D0260E082E00E940D0229
:1001300061E083E00E940D02089560E080E00E948B
:100140000D0260E081E00E940D0260E082E00E940A
:100150000D0260E083E00E940D02089560E08AE0F5
:100160000E94A70160E08BE00E94A70160E08CE0A4
:100170000E94A70160E08DE00E94A70160E08EE090
:100180000E94A70161E084E10E94A70161E085E18E
:100190000E94A70161E086E10E94A7010E94480039
:1001A0008AE00E94730280930A018BE00E9473022E
:1001B000809306018CE00E947302809307018DE01A
:1001C0000E947302809309018EE00E947302809363
:1001D000080190910A019130A9F461E084E10E9444
:1001E0000D0260E085E10E940D0260E086E10E9460
:1001F0000D028CE291E090930501809304010E942E
:1002000059005FC0909106019130A9F461E085E149
:100210000E940D0260E084E10E940D0260E086E130
:100220000E940D028CE291E0909303018093020101
:100230000E946A0046C0909107019130A9F461E0E4
:1002400086E10E940D0260E084E10E940D0260E000
:1002500085E10E940D028CE291E090930101809370
:1002600000010E947B002DC0909109019130C9F4DA
:1002700061E085E10E940D0261E086E10E940D02CD
:1002800060E084E10E940D028CE291E09093030112
:100290008093020190930101809300010E948C00E1
:1002A00010C0813071F460E084E10E940D0260E0D2
:1002B00085E10E940D0260E086E10E940D020E942D
:1002C0009D008091040190910501009729F001970C
:1002D00090930501809304018091020190910301A4
:1002E000009729F001979093030180930201809178
:1002F000000190910101009729F00197909301016D
:10030000809300018091040190910501892B21F4D3
:1003100060E084E10E940D0280910201909103014E
:10032000892B21F460E085E10E940D02809100019B
:1003300090910101892B21F460E086E10E940D0279
:100340008FE99FE00197F1F700C0000029CF9DECF5
:10035000899F912D1124969596959695392F330F57
:10036000232F220F220F230F821B282F9130F9F009
:1003700018F09230B9F10895613059F434B181E048
:1003800090E002C0880F991F2A95E2F7832B84B969
:100390000895611141C034B181E090E002C0880F3E
:1003A000991F2A95E2F78095832384B908956130D7
:1003B00059F437B181E090E002C0880F991F2A9567
:1003C000E2F7832B87B90895611126C037B181E028
:1003D00090E002C0880F991F2A95E2F78095832349
:1003E00087B90895613059F43AB181E090E002C0D4
:1003F000880F991F2A95E2F7832B8AB90895611116
:100400000BC03AB181E090E002C0880F991F2A9595
:10041000E2F7809583238AB908959DEC899F912DF9
:100420001124969596959695392F330F232F220FE9
:10043000220F230F821B282F9130F9F018F09230F1
:10044000B9F10895613059F435B181E090E002C00E
:10045000880F991F2A95E2F7832B85B908956111BA
:1004600041C035B181E090E002C0880F991F2A9504
:10047000E2F78095832385B90895613059F438B146
:1004800081E090E002C0880F991F2A95E2F7832B44
:1004900088B90895611126C038B181E090E002C0AA
:1004A000880F991F2A95E2F78095832388B90895CC
:1004B000613059F43BB181E090E002C0880F991F90
:1004C0002A95E2F7832B8BB9089561110BC03BB1DC
:1004D00081E090E002C0880F991F2A95E2F780958D
:1004E00083238BB908959DEC899F912D11249695B6
:1004F00096959695392F330F232F220F220F230F16
:10050000821B282F913069F018F0923099F01BC0AF
:1005100083B190E002C0959587952A95E2F78170A6
:10052000089586B190E002C0959587952A95E2F7E7
:100530008170089589B190E002C0959587952A95BC
:0C054000E2F7817008950895F894FFCF51
:00000001FF
